{
  "address": "0x770d74FCcB73B70DA0A3eE780Cbb9EF9f836B411",
  "abi": [
    {
      "anonymous": false,
      "inputs": [
        {
          "indexed": true,
          "internalType": "address",
          "name": "owner",
          "type": "address"
        },
        {
          "indexed": true,
          "internalType": "address",
          "name": "approved",
          "type": "address"
        },
        {
          "indexed": true,
          "internalType": "uint256",
          "name": "tokenId",
          "type": "uint256"
        }
      ],
      "name": "Approval",
      "type": "event"
    },
    {
      "anonymous": false,
      "inputs": [
        {
          "indexed": true,
          "internalType": "address",
          "name": "owner",
          "type": "address"
        },
        {
          "indexed": true,
          "internalType": "address",
          "name": "operator",
          "type": "address"
        },
        {
          "indexed": false,
          "internalType": "bool",
          "name": "approved",
          "type": "bool"
        }
      ],
      "name": "ApprovalForAll",
      "type": "event"
    },
    {
      "anonymous": false,
      "inputs": [
        {
          "indexed": false,
          "internalType": "uint256",
          "name": "tokenId",
          "type": "uint256"
        },
        {
          "indexed": false,
          "internalType": "string",
          "name": "uri",
          "type": "string"
        }
      ],
      "name": "ChangedURI",
      "type": "event"
    },
    {
      "anonymous": false,
      "inputs": [
        {
          "indexed": false,
          "internalType": "address",
          "name": "_admin",
          "type": "address"
        },
        {
          "indexed": false,
          "internalType": "bool",
          "name": "_enabled",
          "type": "bool"
        }
      ],
      "name": "NewAdminSet",
      "type": "event"
    },
    {
      "anonymous": false,
      "inputs": [
        {
          "indexed": true,
          "internalType": "address",
          "name": "previousOwner",
          "type": "address"
        },
        {
          "indexed": true,
          "internalType": "address",
          "name": "newOwner",
          "type": "address"
        }
      ],
      "name": "OwnershipTransferred",
      "type": "event"
    },
    {
      "anonymous": false,
      "inputs": [
        {
          "indexed": false,
          "internalType": "uint256",
          "name": "tokenId",
          "type": "uint256"
        },
        {
          "indexed": false,
          "internalType": "address",
          "name": "recepient",
          "type": "address"
        },
        {
          "indexed": false,
          "internalType": "string",
          "name": "uri",
          "type": "string"
        }
      ],
      "name": "TokenMinted",
      "type": "event"
    },
    {
      "anonymous": false,
      "inputs": [
        {
          "indexed": true,
          "internalType": "address",
          "name": "from",
          "type": "address"
        },
        {
          "indexed": true,
          "internalType": "address",
          "name": "to",
          "type": "address"
        },
        {
          "indexed": true,
          "internalType": "uint256",
          "name": "tokenId",
          "type": "uint256"
        }
      ],
      "name": "Transfer",
      "type": "event"
    },
    {
      "inputs": [
        {
          "internalType": "address",
          "name": "to",
          "type": "address"
        },
        {
          "internalType": "uint256",
          "name": "tokenId",
          "type": "uint256"
        }
      ],
      "name": "approve",
      "outputs": [],
      "stateMutability": "nonpayable",
      "type": "function"
    },
    {
      "inputs": [
        {
          "internalType": "address",
          "name": "owner",
          "type": "address"
        }
      ],
      "name": "balanceOf",
      "outputs": [
        {
          "internalType": "uint256",
          "name": "",
          "type": "uint256"
        }
      ],
      "stateMutability": "view",
      "type": "function"
    },
    {
      "inputs": [
        {
          "internalType": "uint256",
          "name": "tokenId",
          "type": "uint256"
        }
      ],
      "name": "getApproved",
      "outputs": [
        {
          "internalType": "address",
          "name": "",
          "type": "address"
        }
      ],
      "stateMutability": "view",
      "type": "function"
    },
    {
      "inputs": [
        {
          "internalType": "address",
          "name": "admin",
          "type": "address"
        }
      ],
      "name": "isAdmin",
      "outputs": [
        {
          "internalType": "bool",
          "name": "",
          "type": "bool"
        }
      ],
      "stateMutability": "view",
      "type": "function"
    },
    {
      "inputs": [
        {
          "internalType": "address",
          "name": "owner",
          "type": "address"
        },
        {
          "internalType": "address",
          "name": "operator",
          "type": "address"
        }
      ],
      "name": "isApprovedForAll",
      "outputs": [
        {
          "internalType": "bool",
          "name": "",
          "type": "bool"
        }
      ],
      "stateMutability": "view",
      "type": "function"
    },
    {
      "inputs": [
        {
          "internalType": "address",
          "name": "recepient",
          "type": "address"
        },
        {
          "internalType": "string",
          "name": "uri",
          "type": "string"
        }
      ],
      "name": "mint",
      "outputs": [],
      "stateMutability": "nonpayable",
      "type": "function"
    },
    {
      "inputs": [],
      "name": "name",
      "outputs": [
        {
          "internalType": "string",
          "name": "",
          "type": "string"
        }
      ],
      "stateMutability": "view",
      "type": "function"
    },
    {
      "inputs": [],
      "name": "owner",
      "outputs": [
        {
          "internalType": "address",
          "name": "",
          "type": "address"
        }
      ],
      "stateMutability": "view",
      "type": "function"
    },
    {
      "inputs": [
        {
          "internalType": "uint256",
          "name": "tokenId",
          "type": "uint256"
        }
      ],
      "name": "ownerOf",
      "outputs": [
        {
          "internalType": "address",
          "name": "",
          "type": "address"
        }
      ],
      "stateMutability": "view",
      "type": "function"
    },
    {
      "inputs": [],
      "name": "renounceOwnership",
      "outputs": [],
      "stateMutability": "nonpayable",
      "type": "function"
    },
    {
      "inputs": [
        {
          "internalType": "address",
          "name": "from",
          "type": "address"
        },
        {
          "internalType": "address",
          "name": "to",
          "type": "address"
        },
        {
          "internalType": "uint256",
          "name": "tokenId",
          "type": "uint256"
        }
      ],
      "name": "safeTransferFrom",
      "outputs": [],
      "stateMutability": "nonpayable",
      "type": "function"
    },
    {
      "inputs": [
        {
          "internalType": "address",
          "name": "from",
          "type": "address"
        },
        {
          "internalType": "address",
          "name": "to",
          "type": "address"
        },
        {
          "internalType": "uint256",
          "name": "tokenId",
          "type": "uint256"
        },
        {
          "internalType": "bytes",
          "name": "_data",
          "type": "bytes"
        }
      ],
      "name": "safeTransferFrom",
      "outputs": [],
      "stateMutability": "nonpayable",
      "type": "function"
    },
    {
      "inputs": [
        {
          "internalType": "address",
          "name": "admin",
          "type": "address"
        },
        {
          "internalType": "bool",
          "name": "enabled",
          "type": "bool"
        }
      ],
      "name": "setAdmin",
      "outputs": [],
      "stateMutability": "nonpayable",
      "type": "function"
    },
    {
      "inputs": [
        {
          "internalType": "address",
          "name": "operator",
          "type": "address"
        },
        {
          "internalType": "bool",
          "name": "approved",
          "type": "bool"
        }
      ],
      "name": "setApprovalForAll",
      "outputs": [],
      "stateMutability": "nonpayable",
      "type": "function"
    },
    {
      "inputs": [
        {
          "internalType": "string",
          "name": "baseURI_",
          "type": "string"
        }
      ],
      "name": "setBaseURI",
      "outputs": [],
      "stateMutability": "nonpayable",
      "type": "function"
    },
    {
      "inputs": [
        {
          "internalType": "uint256",
          "name": "tokenId",
          "type": "uint256"
        },
        {
          "internalType": "string",
          "name": "uri",
          "type": "string"
        }
      ],
      "name": "setTokenURI",
      "outputs": [],
      "stateMutability": "nonpayable",
      "type": "function"
    },
    {
      "inputs": [
        {
          "internalType": "bytes4",
          "name": "interfaceId",
          "type": "bytes4"
        }
      ],
      "name": "supportsInterface",
      "outputs": [
        {
          "internalType": "bool",
          "name": "",
          "type": "bool"
        }
      ],
      "stateMutability": "view",
      "type": "function"
    },
    {
      "inputs": [],
      "name": "symbol",
      "outputs": [
        {
          "internalType": "string",
          "name": "",
          "type": "string"
        }
      ],
      "stateMutability": "view",
      "type": "function"
    },
    {
      "inputs": [
        {
          "internalType": "uint256",
          "name": "tokenId",
          "type": "uint256"
        }
      ],
      "name": "tokenURI",
      "outputs": [
        {
          "internalType": "string",
          "name": "",
          "type": "string"
        }
      ],
      "stateMutability": "view",
      "type": "function"
    },
    {
      "inputs": [
        {
          "internalType": "address",
          "name": "from",
          "type": "address"
        },
        {
          "internalType": "address",
          "name": "to",
          "type": "address"
        },
        {
          "internalType": "uint256",
          "name": "tokenId",
          "type": "uint256"
        }
      ],
      "name": "transferFrom",
      "outputs": [],
      "stateMutability": "nonpayable",
      "type": "function"
    },
    {
      "inputs": [
        {
          "internalType": "address",
          "name": "newOwner",
          "type": "address"
        }
      ],
      "name": "transferOwnership",
      "outputs": [],
      "stateMutability": "nonpayable",
      "type": "function"
    }
  ],
  "transactionHash": "0x379b009ae7a5c4c5accd030d39e66084090eaa1b6e2792485a8db1a6a0c683db",
  "args": [],
  "numDeployments": 1,
  "solcInputHash": "8328f79d8b407b5d6d401ec0792c06c8",
  "bytecode": "0x60806040523480156200001157600080fd5b506040518060400160405280601a81526020017f5468652043727970746f6e69616e7320436f6c6c656374696f6e0000000000008152506040518060400160405280600381526020017f5443430000000000000000000000000000000000000000000000000000000000815250816000908051906020019062000096929190620001a6565b508060019080519060200190620000af929190620001a6565b505050620000d2620000c6620000d860201b60201c565b620000e060201b60201c565b620002bb565b600033905090565b6000600660009054906101000a900473ffffffffffffffffffffffffffffffffffffffff16905081600660006101000a81548173ffffffffffffffffffffffffffffffffffffffff021916908373ffffffffffffffffffffffffffffffffffffffff1602179055508173ffffffffffffffffffffffffffffffffffffffff168173ffffffffffffffffffffffffffffffffffffffff167f8be0079c531659141344cd1fd0a4f28419497f9722a3daafe3b4186f6b6457e060405160405180910390a35050565b828054620001b49062000256565b90600052602060002090601f016020900481019282620001d8576000855562000224565b82601f10620001f357805160ff191683800117855562000224565b8280016001018555821562000224579182015b828111156200022357825182559160200191906001019062000206565b5b50905062000233919062000237565b5090565b5b808211156200025257600081600090555060010162000238565b5090565b600060028204905060018216806200026f57607f821691505b602082108114156200028657620002856200028c565b5b50919050565b7f4e487b7100000000000000000000000000000000000000000000000000000000600052602260045260246000fd5b61359680620002cb6000396000f3fe608060405234801561001057600080fd5b50600436106101375760003560e01c80636352211e116100b8578063a22cb4651161007c578063a22cb46514610338578063b88d4fde14610354578063c87b56dd14610370578063d0def521146103a0578063e985e9c5146103bc578063f2fde38b146103ec57610137565b80636352211e1461029257806370a08231146102c2578063715018a6146102f25780638da5cb5b146102fc57806395d89b411461031a57610137565b806323b872dd116100ff57806323b872dd146101f257806324d7806c1461020e57806342842e0e1461023e5780634b0bddd21461025a57806355f804b31461027657610137565b806301ffc9a71461013c57806306fdde031461016c578063081812fc1461018a578063095ea7b3146101ba578063162094c4146101d6575b600080fd5b610156600480360381019061015191906123ba565b610408565b60405161016391906128e0565b60405180910390f35b6101746104ea565b60405161018191906128fb565b60405180910390f35b6101a4600480360381019061019f919061245d565b61057c565b6040516101b19190612850565b60405180910390f35b6101d460048036038101906101cf919061237a565b610601565b005b6101f060048036038101906101eb919061248a565b610719565b005b61020c60048036038101906102079190612208565b610837565b005b6102286004803603810190610223919061219b565b610897565b60405161023591906128e0565b60405180910390f35b61025860048036038101906102539190612208565b6108ed565b005b610274600480360381019061026f91906122de565b61090d565b005b610290600480360381019061028b9190612414565b610a1d565b005b6102ac60048036038101906102a7919061245d565b610ab3565b6040516102b99190612850565b60405180910390f35b6102dc60048036038101906102d7919061219b565b610b65565b6040516102e99190612b5d565b60405180910390f35b6102fa610c1d565b005b610304610ca5565b6040516103119190612850565b60405180910390f35b610322610ccf565b60405161032f91906128fb565b60405180910390f35b610352600480360381019061034d91906122de565b610d61565b005b61036e6004803603810190610369919061225b565b610d77565b005b61038a6004803603810190610385919061245d565b610dd9565b60405161039791906128fb565b60405180910390f35b6103ba60048036038101906103b5919061231e565b610f4c565b005b6103d660048036038101906103d191906121c8565b61108f565b6040516103e391906128e0565b60405180910390f35b6104066004803603810190610401919061219b565b611123565b005b60007f80ac58cd000000000000000000000000000000000000000000000000000000007bffffffffffffffffffffffffffffffffffffffffffffffffffffffff1916827bffffffffffffffffffffffffffffffffffffffffffffffffffffffff191614806104d357507f5b5e139f000000000000000000000000000000000000000000000000000000007bffffffffffffffffffffffffffffffffffffffffffffffffffffffff1916827bffffffffffffffffffffffffffffffffffffffffffffffffffffffff1916145b806104e357506104e28261121b565b5b9050919050565b6060600080546104f990612e21565b80601f016020809104026020016040519081016040528092919081815260200182805461052590612e21565b80156105725780601f1061054757610100808354040283529160200191610572565b820191906000526020600020905b81548152906001019060200180831161055557829003601f168201915b5050505050905090565b600061058782611285565b6105c6576040517f08c379a00000000000000000000000000000000000000000000000000000000081526004016105bd90612a7d565b60405180910390fd5b6004600083815260200190815260200160002060009054906101000a900473ffffffffffffffffffffffffffffffffffffffff169050919050565b600061060c82610ab3565b90508073ffffffffffffffffffffffffffffffffffffffff168373ffffffffffffffffffffffffffffffffffffffff16141561067d576040517f08c379a000000000000000000000000000000000000000000000000000000000815260040161067490612b1d565b60405180910390fd5b8073ffffffffffffffffffffffffffffffffffffffff1661069c6112f1565b73ffffffffffffffffffffffffffffffffffffffff1614806106cb57506106ca816106c56112f1565b61108f565b5b61070a576040517f08c379a0000000000000000000000000000000000000000000000000000000008152600401610701906129fd565b60405180910390fd5b61071483836112f9565b505050565b600760006107256112f1565b73ffffffffffffffffffffffffffffffffffffffff1673ffffffffffffffffffffffffffffffffffffffff16815260200190815260200160002060009054906101000a900460ff16806107b1575061077b610ca5565b73ffffffffffffffffffffffffffffffffffffffff166107996112f1565b73ffffffffffffffffffffffffffffffffffffffff16145b6107f0576040517f08c379a00000000000000000000000000000000000000000000000000000000081526004016107e790612add565b60405180910390fd5b6107fa82826113b2565b7fa1353f02c03641c80d3adcc1c213ea54034482a2f07e21949b81613403722665828260405161082b929190612bb6565b60405180910390a15050565b6108486108426112f1565b82611426565b610887576040517f08c379a000000000000000000000000000000000000000000000000000000000815260040161087e90612b3d565b60405180910390fd5b610892838383611504565b505050565b6000600760008373ffffffffffffffffffffffffffffffffffffffff1673ffffffffffffffffffffffffffffffffffffffff16815260200190815260200160002060009054906101000a900460ff169050919050565b61090883838360405180602001604052806000815250610d77565b505050565b6109156112f1565b73ffffffffffffffffffffffffffffffffffffffff16610933610ca5565b73ffffffffffffffffffffffffffffffffffffffff1614610989576040517f08c379a000000000000000000000000000000000000000000000000000000000815260040161098090612abd565b60405180910390fd5b80600760008473ffffffffffffffffffffffffffffffffffffffff1673ffffffffffffffffffffffffffffffffffffffff16815260200190815260200160002060006101000a81548160ff0219169083151502179055507f0f1e65ade59c7481302349ccf309e2c26655f60ced75e513269e2e1a6ce9293b8282604051610a119291906128b7565b60405180910390a15050565b610a256112f1565b73ffffffffffffffffffffffffffffffffffffffff16610a43610ca5565b73ffffffffffffffffffffffffffffffffffffffff1614610a99576040517f08c379a0000000000000000000000000000000000000000000000000000000008152600401610a9090612abd565b60405180910390fd5b8060099080519060200190610aaf929190611faf565b5050565b6000806002600084815260200190815260200160002060009054906101000a900473ffffffffffffffffffffffffffffffffffffffff169050600073ffffffffffffffffffffffffffffffffffffffff168173ffffffffffffffffffffffffffffffffffffffff161415610b5c576040517f08c379a0000000000000000000000000000000000000000000000000000000008152600401610b5390612a3d565b60405180910390fd5b80915050919050565b60008073ffffffffffffffffffffffffffffffffffffffff168273ffffffffffffffffffffffffffffffffffffffff161415610bd6576040517f08c379a0000000000000000000000000000000000000000000000000000000008152600401610bcd90612a1d565b60405180910390fd5b600360008373ffffffffffffffffffffffffffffffffffffffff1673ffffffffffffffffffffffffffffffffffffffff168152602001908152602001600020549050919050565b610c256112f1565b73ffffffffffffffffffffffffffffffffffffffff16610c43610ca5565b73ffffffffffffffffffffffffffffffffffffffff1614610c99576040517f08c379a0000000000000000000000000000000000000000000000000000000008152600401610c9090612abd565b60405180910390fd5b610ca3600061176b565b565b6000600660009054906101000a900473ffffffffffffffffffffffffffffffffffffffff16905090565b606060018054610cde90612e21565b80601f0160208091040260200160405190810160405280929190818152602001828054610d0a90612e21565b8015610d575780601f10610d2c57610100808354040283529160200191610d57565b820191906000526020600020905b815481529060010190602001808311610d3a57829003601f168201915b5050505050905090565b610d73610d6c6112f1565b8383611831565b5050565b610d88610d826112f1565b83611426565b610dc7576040517f08c379a0000000000000000000000000000000000000000000000000000000008152600401610dbe90612b3d565b60405180910390fd5b610dd38484848461199e565b50505050565b6060610de482611285565b610e23576040517f08c379a0000000000000000000000000000000000000000000000000000000008152600401610e1a90612afd565b60405180910390fd5b6000600860008481526020019081526020016000208054610e4390612e21565b80601f0160208091040260200160405190810160405280929190818152602001828054610e6f90612e21565b8015610ebc5780601f10610e9157610100808354040283529160200191610ebc565b820191906000526020600020905b815481529060010190602001808311610e9f57829003601f168201915b505050505090506000610ecd6119fa565b9050600081511415610ee3578192505050610f47565b600082511115610f18578082604051602001610f0092919061282c565b60405160208183030381529060405292505050610f47565b80610f2285611a8c565b604051602001610f3392919061282c565b604051602081830303815290604052925050505b919050565b60076000610f586112f1565b73ffffffffffffffffffffffffffffffffffffffff1673ffffffffffffffffffffffffffffffffffffffff16815260200190815260200160002060009054906101000a900460ff1680610fe45750610fae610ca5565b73ffffffffffffffffffffffffffffffffffffffff16610fcc6112f1565b73ffffffffffffffffffffffffffffffffffffffff16145b611023576040517f08c379a000000000000000000000000000000000000000000000000000000000815260040161101a90612add565b60405180910390fd5b61102d600a611bed565b6000611039600a611c03565b90506110458382611c11565b61104f81836113b2565b7fec2cd236ed6d37bf5a71276ac93889db12834493a090efd543a3d2eca8dcdcc881848460405161108293929190612b78565b60405180910390a1505050565b6000600560008473ffffffffffffffffffffffffffffffffffffffff1673ffffffffffffffffffffffffffffffffffffffff16815260200190815260200160002060008373ffffffffffffffffffffffffffffffffffffffff1673ffffffffffffffffffffffffffffffffffffffff16815260200190815260200160002060009054906101000a900460ff16905092915050565b61112b6112f1565b73ffffffffffffffffffffffffffffffffffffffff16611149610ca5565b73ffffffffffffffffffffffffffffffffffffffff161461119f576040517f08c379a000000000000000000000000000000000000000000000000000000000815260040161119690612abd565b60405180910390fd5b600073ffffffffffffffffffffffffffffffffffffffff168173ffffffffffffffffffffffffffffffffffffffff16141561120f576040517f08c379a00000000000000000000000000000000000000000000000000000000081526004016112069061293d565b60405180910390fd5b6112188161176b565b50565b60007f01ffc9a7000000000000000000000000000000000000000000000000000000007bffffffffffffffffffffffffffffffffffffffffffffffffffffffff1916827bffffffffffffffffffffffffffffffffffffffffffffffffffffffff1916149050919050565b60008073ffffffffffffffffffffffffffffffffffffffff166002600084815260200190815260200160002060009054906101000a900473ffffffffffffffffffffffffffffffffffffffff1673ffffffffffffffffffffffffffffffffffffffff1614159050919050565b600033905090565b816004600083815260200190815260200160002060006101000a81548173ffffffffffffffffffffffffffffffffffffffff021916908373ffffffffffffffffffffffffffffffffffffffff160217905550808273ffffffffffffffffffffffffffffffffffffffff1661136c83610ab3565b73ffffffffffffffffffffffffffffffffffffffff167f8c5be1e5ebec7d5bd14f71427d1e84f3dd0314c0f7b2291e5b200ac8c7c3b92560405160405180910390a45050565b6113bb82611285565b6113fa576040517f08c379a00000000000000000000000000000000000000000000000000000000081526004016113f190612a9d565b60405180910390fd5b80600860008481526020019081526020016000209080519060200190611421929190611faf565b505050565b600061143182611285565b611470576040517f08c379a0000000000000000000000000000000000000000000000000000000008152600401611467906129dd565b60405180910390fd5b600061147b83610ab3565b90508073ffffffffffffffffffffffffffffffffffffffff168473ffffffffffffffffffffffffffffffffffffffff1614806114bd57506114bc818561108f565b5b806114fb57508373ffffffffffffffffffffffffffffffffffffffff166114e38461057c565b73ffffffffffffffffffffffffffffffffffffffff16145b91505092915050565b8273ffffffffffffffffffffffffffffffffffffffff1661152482610ab3565b73ffffffffffffffffffffffffffffffffffffffff161461157a576040517f08c379a00000000000000000000000000000000000000000000000000000000081526004016115719061295d565b60405180910390fd5b600073ffffffffffffffffffffffffffffffffffffffff168273ffffffffffffffffffffffffffffffffffffffff1614156115ea576040517f08c379a00000000000000000000000000000000000000000000000000000000081526004016115e19061299d565b60405180910390fd5b6115f5838383611deb565b6116006000826112f9565b6001600360008573ffffffffffffffffffffffffffffffffffffffff1673ffffffffffffffffffffffffffffffffffffffff16815260200190815260200160002060008282546116509190612d37565b925050819055506001600360008473ffffffffffffffffffffffffffffffffffffffff1673ffffffffffffffffffffffffffffffffffffffff16815260200190815260200160002060008282546116a79190612cb0565b92505081905550816002600083815260200190815260200160002060006101000a81548173ffffffffffffffffffffffffffffffffffffffff021916908373ffffffffffffffffffffffffffffffffffffffff160217905550808273ffffffffffffffffffffffffffffffffffffffff168473ffffffffffffffffffffffffffffffffffffffff167fddf252ad1be2c89b69c2b068fc378daa952ba7f163c4a11628f55a4df523b3ef60405160405180910390a4611766838383611df0565b505050565b6000600660009054906101000a900473ffffffffffffffffffffffffffffffffffffffff16905081600660006101000a81548173ffffffffffffffffffffffffffffffffffffffff021916908373ffffffffffffffffffffffffffffffffffffffff1602179055508173ffffffffffffffffffffffffffffffffffffffff168173ffffffffffffffffffffffffffffffffffffffff167f8be0079c531659141344cd1fd0a4f28419497f9722a3daafe3b4186f6b6457e060405160405180910390a35050565b8173ffffffffffffffffffffffffffffffffffffffff168373ffffffffffffffffffffffffffffffffffffffff1614156118a0576040517f08c379a0000000000000000000000000000000000000000000000000000000008152600401611897906129bd565b60405180910390fd5b80600560008573ffffffffffffffffffffffffffffffffffffffff1673ffffffffffffffffffffffffffffffffffffffff16815260200190815260200160002060008473ffffffffffffffffffffffffffffffffffffffff1673ffffffffffffffffffffffffffffffffffffffff16815260200190815260200160002060006101000a81548160ff0219169083151502179055508173ffffffffffffffffffffffffffffffffffffffff168373ffffffffffffffffffffffffffffffffffffffff167f17307eab39ab6107e8899845ad3d59bd9653f200f220920489ca2b5937696c318360405161199191906128e0565b60405180910390a3505050565b6119a9848484611504565b6119b584848484611df5565b6119f4576040517f08c379a00000000000000000000000000000000000000000000000000000000081526004016119eb9061291d565b60405180910390fd5b50505050565b606060098054611a0990612e21565b80601f0160208091040260200160405190810160405280929190818152602001828054611a3590612e21565b8015611a825780601f10611a5757610100808354040283529160200191611a82565b820191906000526020600020905b815481529060010190602001808311611a6557829003601f168201915b5050505050905090565b60606000821415611ad4576040518060400160405280600181526020017f30000000000000000000000000000000000000000000000000000000000000008152509050611be8565b600082905060005b60008214611b06578080611aef90612e84565b915050600a82611aff9190612d06565b9150611adc565b60008167ffffffffffffffff811115611b2257611b21612fba565b5b6040519080825280601f01601f191660200182016040528015611b545781602001600182028036833780820191505090505b5090505b60008514611be157600182611b6d9190612d37565b9150600a85611b7c9190612ecd565b6030611b889190612cb0565b60f81b818381518110611b9e57611b9d612f8b565b5b60200101907effffffffffffffffffffffffffffffffffffffffffffffffffffffffffffff1916908160001a905350600a85611bda9190612d06565b9450611b58565b8093505050505b919050565b6001816000016000828254019250508190555050565b600081600001549050919050565b600073ffffffffffffffffffffffffffffffffffffffff168273ffffffffffffffffffffffffffffffffffffffff161415611c81576040517f08c379a0000000000000000000000000000000000000000000000000000000008152600401611c7890612a5d565b60405180910390fd5b611c8a81611285565b15611cca576040517f08c379a0000000000000000000000000000000000000000000000000000000008152600401611cc19061297d565b60405180910390fd5b611cd660008383611deb565b6001600360008473ffffffffffffffffffffffffffffffffffffffff1673ffffffffffffffffffffffffffffffffffffffff1681526020019081526020016000206000828254611d269190612cb0565b92505081905550816002600083815260200190815260200160002060006101000a81548173ffffffffffffffffffffffffffffffffffffffff021916908373ffffffffffffffffffffffffffffffffffffffff160217905550808273ffffffffffffffffffffffffffffffffffffffff16600073ffffffffffffffffffffffffffffffffffffffff167fddf252ad1be2c89b69c2b068fc378daa952ba7f163c4a11628f55a4df523b3ef60405160405180910390a4611de760008383611df0565b5050565b505050565b505050565b6000611e168473ffffffffffffffffffffffffffffffffffffffff16611f8c565b15611f7f578373ffffffffffffffffffffffffffffffffffffffff1663150b7a02611e3f6112f1565b8786866040518563ffffffff1660e01b8152600401611e61949392919061286b565b602060405180830381600087803b158015611e7b57600080fd5b505af1925050508015611eac57506040513d601f19601f82011682018060405250810190611ea991906123e7565b60015b611f2f573d8060008114611edc576040519150601f19603f3d011682016040523d82523d6000602084013e611ee1565b606091505b50600081511415611f27576040517f08c379a0000000000000000000000000000000000000000000000000000000008152600401611f1e9061291d565b60405180910390fd5b805181602001fd5b63150b7a0260e01b7bffffffffffffffffffffffffffffffffffffffffffffffffffffffff1916817bffffffffffffffffffffffffffffffffffffffffffffffffffffffff191614915050611f84565b600190505b949350505050565b6000808273ffffffffffffffffffffffffffffffffffffffff163b119050919050565b828054611fbb90612e21565b90600052602060002090601f016020900481019282611fdd5760008555612024565b82601f10611ff657805160ff1916838001178555612024565b82800160010185558215612024579182015b82811115612023578251825591602001919060010190612008565b5b5090506120319190612035565b5090565b5b8082111561204e576000816000905550600101612036565b5090565b600061206561206084612c0b565b612be6565b90508281526020810184848401111561208157612080612fee565b5b61208c848285612ddf565b509392505050565b60006120a76120a284612c3c565b612be6565b9050828152602081018484840111156120c3576120c2612fee565b5b6120ce848285612ddf565b509392505050565b6000813590506120e581613504565b92915050565b6000813590506120fa8161351b565b92915050565b60008135905061210f81613532565b92915050565b60008151905061212481613532565b92915050565b600082601f83011261213f5761213e612fe9565b5b813561214f848260208601612052565b91505092915050565b600082601f83011261216d5761216c612fe9565b5b813561217d848260208601612094565b91505092915050565b60008135905061219581613549565b92915050565b6000602082840312156121b1576121b0612ff8565b5b60006121bf848285016120d6565b91505092915050565b600080604083850312156121df576121de612ff8565b5b60006121ed858286016120d6565b92505060206121fe858286016120d6565b9150509250929050565b60008060006060848603121561222157612220612ff8565b5b600061222f868287016120d6565b9350506020612240868287016120d6565b925050604061225186828701612186565b9150509250925092565b6000806000806080858703121561227557612274612ff8565b5b6000612283878288016120d6565b9450506020612294878288016120d6565b93505060406122a587828801612186565b925050606085013567ffffffffffffffff8111156122c6576122c5612ff3565b5b6122d28782880161212a565b91505092959194509250565b600080604083850312156122f5576122f4612ff8565b5b6000612303858286016120d6565b9250506020612314858286016120eb565b9150509250929050565b6000806040838503121561233557612334612ff8565b5b6000612343858286016120d6565b925050602083013567ffffffffffffffff81111561236457612363612ff3565b5b61237085828601612158565b9150509250929050565b6000806040838503121561239157612390612ff8565b5b600061239f858286016120d6565b92505060206123b085828601612186565b9150509250929050565b6000602082840312156123d0576123cf612ff8565b5b60006123de84828501612100565b91505092915050565b6000602082840312156123fd576123fc612ff8565b5b600061240b84828501612115565b91505092915050565b60006020828403121561242a57612429612ff8565b5b600082013567ffffffffffffffff81111561244857612447612ff3565b5b61245484828501612158565b91505092915050565b60006020828403121561247357612472612ff8565b5b600061248184828501612186565b91505092915050565b600080604083850312156124a1576124a0612ff8565b5b60006124af85828601612186565b925050602083013567ffffffffffffffff8111156124d0576124cf612ff3565b5b6124dc85828601612158565b9150509250929050565b6124ef81612d6b565b82525050565b6124fe81612d7d565b82525050565b600061250f82612c6d565b6125198185612c83565b9350612529818560208601612dee565b61253281612ffd565b840191505092915050565b600061254882612c78565b6125528185612c94565b9350612562818560208601612dee565b61256b81612ffd565b840191505092915050565b600061258182612c78565b61258b8185612ca5565b935061259b818560208601612dee565b80840191505092915050565b60006125b4603283612c94565b91506125bf8261300e565b604082019050919050565b60006125d7602683612c94565b91506125e28261305d565b604082019050919050565b60006125fa602583612c94565b9150612605826130ac565b604082019050919050565b600061261d601c83612c94565b9150612628826130fb565b602082019050919050565b6000612640602483612c94565b915061264b82613124565b604082019050919050565b6000612663601983612c94565b915061266e82613173565b602082019050919050565b6000612686602c83612c94565b91506126918261319c565b604082019050919050565b60006126a9603883612c94565b91506126b4826131eb565b604082019050919050565b60006126cc602a83612c94565b91506126d78261323a565b604082019050919050565b60006126ef602983612c94565b91506126fa82613289565b604082019050919050565b6000612712602083612c94565b915061271d826132d8565b602082019050919050565b6000612735602c83612c94565b915061274082613301565b604082019050919050565b6000612758602c83612c94565b915061276382613350565b604082019050919050565b600061277b602083612c94565b91506127868261339f565b602082019050919050565b600061279e602183612c94565b91506127a9826133c8565b604082019050919050565b60006127c1602f83612c94565b91506127cc82613417565b604082019050919050565b60006127e4602183612c94565b91506127ef82613466565b604082019050919050565b6000612807603183612c94565b9150612812826134b5565b604082019050919050565b61282681612dd5565b82525050565b60006128388285612576565b91506128448284612576565b91508190509392505050565b600060208201905061286560008301846124e6565b92915050565b600060808201905061288060008301876124e6565b61288d60208301866124e6565b61289a604083018561281d565b81810360608301526128ac8184612504565b905095945050505050565b60006040820190506128cc60008301856124e6565b6128d960208301846124f5565b9392505050565b60006020820190506128f560008301846124f5565b92915050565b60006020820190508181036000830152612915818461253d565b905092915050565b60006020820190508181036000830152612936816125a7565b9050919050565b60006020820190508181036000830152612956816125ca565b9050919050565b60006020820190508181036000830152612976816125ed565b9050919050565b6000602082019050818103600083015261299681612610565b9050919050565b600060208201905081810360008301526129b681612633565b9050919050565b600060208201905081810360008301526129d681612656565b9050919050565b600060208201905081810360008301526129f681612679565b9050919050565b60006020820190508181036000830152612a168161269c565b9050919050565b60006020820190508181036000830152612a36816126bf565b9050919050565b60006020820190508181036000830152612a56816126e2565b9050919050565b60006020820190508181036000830152612a7681612705565b9050919050565b60006020820190508181036000830152612a9681612728565b9050919050565b60006020820190508181036000830152612ab68161274b565b9050919050565b60006020820190508181036000830152612ad68161276e565b9050919050565b60006020820190508181036000830152612af681612791565b9050919050565b60006020820190508181036000830152612b16816127b4565b9050919050565b60006020820190508181036000830152612b36816127d7565b9050919050565b60006020820190508181036000830152612b56816127fa565b9050919050565b6000602082019050612b72600083018461281d565b92915050565b6000606082019050612b8d600083018661281d565b612b9a60208301856124e6565b8181036040830152612bac818461253d565b9050949350505050565b6000604082019050612bcb600083018561281d565b8181036020830152612bdd818461253d565b90509392505050565b6000612bf0612c01565b9050612bfc8282612e53565b919050565b6000604051905090565b600067ffffffffffffffff821115612c2657612c25612fba565b5b612c2f82612ffd565b9050602081019050919050565b600067ffffffffffffffff821115612c5757612c56612fba565b5b612c6082612ffd565b9050602081019050919050565b600081519050919050565b600081519050919050565b600082825260208201905092915050565b600082825260208201905092915050565b600081905092915050565b6000612cbb82612dd5565b9150612cc683612dd5565b9250827fffffffffffffffffffffffffffffffffffffffffffffffffffffffffffffffff03821115612cfb57612cfa612efe565b5b828201905092915050565b6000612d1182612dd5565b9150612d1c83612dd5565b925082612d2c57612d2b612f2d565b5b828204905092915050565b6000612d4282612dd5565b9150612d4d83612dd5565b925082821015612d6057612d5f612efe565b5b828203905092915050565b6000612d7682612db5565b9050919050565b60008115159050919050565b60007fffffffff0000000000000000000000000000000000000000000000000000000082169050919050565b600073ffffffffffffffffffffffffffffffffffffffff82169050919050565b6000819050919050565b82818337600083830152505050565b60005b83811015612e0c578082015181840152602081019050612df1565b83811115612e1b576000848401525b50505050565b60006002820490506001821680612e3957607f821691505b60208210811415612e4d57612e4c612f5c565b5b50919050565b612e5c82612ffd565b810181811067ffffffffffffffff82111715612e7b57612e7a612fba565b5b80604052505050565b6000612e8f82612dd5565b91507fffffffffffffffffffffffffffffffffffffffffffffffffffffffffffffffff821415612ec257612ec1612efe565b5b600182019050919050565b6000612ed882612dd5565b9150612ee383612dd5565b925082612ef357612ef2612f2d565b5b828206905092915050565b7f4e487b7100000000000000000000000000000000000000000000000000000000600052601160045260246000fd5b7f4e487b7100000000000000000000000000000000000000000000000000000000600052601260045260246000fd5b7f4e487b7100000000000000000000000000000000000000000000000000000000600052602260045260246000fd5b7f4e487b7100000000000000000000000000000000000000000000000000000000600052603260045260246000fd5b7f4e487b7100000000000000000000000000000000000000000000000000000000600052604160045260246000fd5b600080fd5b600080fd5b600080fd5b600080fd5b6000601f19601f8301169050919050565b7f4552433732313a207472616e7366657220746f206e6f6e20455243373231526560008201527f63656976657220696d706c656d656e7465720000000000000000000000000000602082015250565b7f4f776e61626c653a206e6577206f776e657220697320746865207a65726f206160008201527f6464726573730000000000000000000000000000000000000000000000000000602082015250565b7f4552433732313a207472616e736665722066726f6d20696e636f72726563742060008201527f6f776e6572000000000000000000000000000000000000000000000000000000602082015250565b7f4552433732313a20746f6b656e20616c7265616479206d696e74656400000000600082015250565b7f4552433732313a207472616e7366657220746f20746865207a65726f2061646460008201527f7265737300000000000000000000000000000000000000000000000000000000602082015250565b7f4552433732313a20617070726f766520746f2063616c6c657200000000000000600082015250565b7f4552433732313a206f70657261746f7220717565727920666f72206e6f6e657860008201527f697374656e7420746f6b656e0000000000000000000000000000000000000000602082015250565b7f4552433732313a20617070726f76652063616c6c6572206973206e6f74206f7760008201527f6e6572206e6f7220617070726f76656420666f7220616c6c0000000000000000602082015250565b7f4552433732313a2062616c616e636520717565727920666f7220746865207a6560008201527f726f206164647265737300000000000000000000000000000000000000000000602082015250565b7f4552433732313a206f776e657220717565727920666f72206e6f6e657869737460008201527f656e7420746f6b656e0000000000000000000000000000000000000000000000602082015250565b7f4552433732313a206d696e7420746f20746865207a65726f2061646472657373600082015250565b7f4552433732313a20617070726f76656420717565727920666f72206e6f6e657860008201527f697374656e7420746f6b656e0000000000000000000000000000000000000000602082015250565b7f4552433732314d657461646174613a2055524920736574206f66206e6f6e657860008201527f697374656e7420746f6b656e0000000000000000000000000000000000000000602082015250565b7f4f776e61626c653a2063616c6c6572206973206e6f7420746865206f776e6572600082015250565b7f43616c6c657220646f6573206e6f7420686176652041646d696e20416363657360008201527f7300000000000000000000000000000000000000000000000000000000000000602082015250565b7f4552433732314d657461646174613a2055524920717565727920666f72206e6f60008201527f6e6578697374656e7420746f6b656e0000000000000000000000000000000000602082015250565b7f4552433732313a20617070726f76616c20746f2063757272656e74206f776e6560008201527f7200000000000000000000000000000000000000000000000000000000000000602082015250565b7f4552433732313a207472616e736665722063616c6c6572206973206e6f74206f60008201527f776e6572206e6f7220617070726f766564000000000000000000000000000000602082015250565b61350d81612d6b565b811461351857600080fd5b50565b61352481612d7d565b811461352f57600080fd5b50565b61353b81612d89565b811461354657600080fd5b50565b61355281612dd5565b811461355d57600080fd5b5056fea2646970667358221220397ff603fe7a627b752627795831c433125a1413024cfae9a515a2c6b76fee5164736f6c63430008070033",
  "devdoc": {
    "kind": "dev",
    "methods": {
      "approve(address,uint256)": {
        "details": "See {IERC721-approve}."
      },
      "balanceOf(address)": {
        "details": "See {IERC721-balanceOf}."
      },
      "getApproved(uint256)": {
        "details": "See {IERC721-getApproved}."
      },
      "isApprovedForAll(address,address)": {
        "details": "See {IERC721-isApprovedForAll}."
      },
      "name()": {
        "details": "See {IERC721Metadata-name}."
      },
      "owner()": {
        "details": "Returns the address of the current owner."
      },
      "ownerOf(uint256)": {
        "details": "See {IERC721-ownerOf}."
      },
      "renounceOwnership()": {
        "details": "Leaves the contract without owner. It will not be possible to call `onlyOwner` functions anymore. Can only be called by the current owner. NOTE: Renouncing ownership will leave the contract without an owner, thereby removing any functionality that is only available to the owner."
      },
      "safeTransferFrom(address,address,uint256)": {
        "details": "See {IERC721-safeTransferFrom}."
      },
      "safeTransferFrom(address,address,uint256,bytes)": {
        "details": "See {IERC721-safeTransferFrom}."
      },
      "setApprovalForAll(address,bool)": {
        "details": "See {IERC721-setApprovalForAll}."
      },
      "supportsInterface(bytes4)": {
        "details": "See {IERC165-supportsInterface}."
      },
      "symbol()": {
        "details": "See {IERC721Metadata-symbol}."
      },
      "tokenURI(uint256)": {
        "details": "See {IERC721Metadata-tokenURI}."
      },
      "transferFrom(address,address,uint256)": {
        "details": "See {IERC721-transferFrom}."
      },
      "transferOwnership(address)": {
        "details": "Transfers ownership of the contract to a new account (`newOwner`). Can only be called by the current owner."
      }
    },
    "version": 1
  },
  "userdoc": {
    "kind": "user",
    "methods": {},
    "version": 1
  },
  "storageLayout": {
    "storage": [
      {
        "astId": 130,
        "contract": "src/nft/TheCryptoniansCollection.sol:TheCryptoniansCollection",
        "label": "_name",
        "offset": 0,
        "slot": "0",
        "type": "t_string_storage"
      },
      {
        "astId": 132,
        "contract": "src/nft/TheCryptoniansCollection.sol:TheCryptoniansCollection",
        "label": "_symbol",
        "offset": 0,
        "slot": "1",
        "type": "t_string_storage"
      },
      {
        "astId": 136,
        "contract": "src/nft/TheCryptoniansCollection.sol:TheCryptoniansCollection",
        "label": "_owners",
        "offset": 0,
        "slot": "2",
        "type": "t_mapping(t_uint256,t_address)"
      },
      {
        "astId": 140,
        "contract": "src/nft/TheCryptoniansCollection.sol:TheCryptoniansCollection",
        "label": "_balances",
        "offset": 0,
        "slot": "3",
        "type": "t_mapping(t_address,t_uint256)"
      },
      {
        "astId": 144,
        "contract": "src/nft/TheCryptoniansCollection.sol:TheCryptoniansCollection",
        "label": "_tokenApprovals",
        "offset": 0,
        "slot": "4",
        "type": "t_mapping(t_uint256,t_address)"
      },
      {
        "astId": 150,
        "contract": "src/nft/TheCryptoniansCollection.sol:TheCryptoniansCollection",
        "label": "_operatorApprovals",
        "offset": 0,
        "slot": "5",
        "type": "t_mapping(t_address,t_mapping(t_address,t_bool))"
      },
      {
        "astId": 7,
        "contract": "src/nft/TheCryptoniansCollection.sol:TheCryptoniansCollection",
        "label": "_owner",
        "offset": 0,
        "slot": "6",
        "type": "t_address"
      },
      {
        "astId": 1982,
        "contract": "src/nft/TheCryptoniansCollection.sol:TheCryptoniansCollection",
        "label": "_admins",
        "offset": 0,
        "slot": "7",
        "type": "t_mapping(t_address,t_bool)"
      },
      {
        "astId": 1798,
        "contract": "src/nft/TheCryptoniansCollection.sol:TheCryptoniansCollection",
        "label": "_tokenURIs",
        "offset": 0,
        "slot": "8",
        "type": "t_mapping(t_uint256,t_string_storage)"
      },
      {
        "astId": 1800,
        "contract": "src/nft/TheCryptoniansCollection.sol:TheCryptoniansCollection",
        "label": "_baseURIExtended",
        "offset": 0,
        "slot": "9",
        "type": "t_string_storage"
      },
      {
        "astId": 1803,
        "contract": "src/nft/TheCryptoniansCollection.sol:TheCryptoniansCollection",
        "label": "numTokens",
        "offset": 0,
        "slot": "10",
        "type": "t_struct(Counter)1454_storage"
      }
    ],
    "types": {
      "t_address": {
        "encoding": "inplace",
        "label": "address",
        "numberOfBytes": "20"
      },
      "t_bool": {
        "encoding": "inplace",
        "label": "bool",
        "numberOfBytes": "1"
      },
      "t_mapping(t_address,t_bool)": {
        "encoding": "mapping",
        "key": "t_address",
        "label": "mapping(address => bool)",
        "numberOfBytes": "32",
        "value": "t_bool"
      },
      "t_mapping(t_address,t_mapping(t_address,t_bool))": {
        "encoding": "mapping",
        "key": "t_address",
        "label": "mapping(address => mapping(address => bool))",
        "numberOfBytes": "32",
        "value": "t_mapping(t_address,t_bool)"
      },
      "t_mapping(t_address,t_uint256)": {
        "encoding": "mapping",
        "key": "t_address",
        "label": "mapping(address => uint256)",
        "numberOfBytes": "32",
        "value": "t_uint256"
      },
      "t_mapping(t_uint256,t_address)": {
        "encoding": "mapping",
        "key": "t_uint256",
        "label": "mapping(uint256 => address)",
        "numberOfBytes": "32",
        "value": "t_address"
      },
      "t_mapping(t_uint256,t_string_storage)": {
        "encoding": "mapping",
        "key": "t_uint256",
        "label": "mapping(uint256 => string)",
        "numberOfBytes": "32",
        "value": "t_string_storage"
      },
      "t_string_storage": {
        "encoding": "bytes",
        "label": "string",
        "numberOfBytes": "32"
      },
      "t_struct(Counter)1454_storage": {
        "encoding": "inplace",
        "label": "struct Counters.Counter",
        "members": [
          {
            "astId": 1453,
            "contract": "src/nft/TheCryptoniansCollection.sol:TheCryptoniansCollection",
            "label": "_value",
            "offset": 0,
            "slot": "0",
            "type": "t_uint256"
          }
        ],
        "numberOfBytes": "32"
      },
      "t_uint256": {
        "encoding": "inplace",
        "label": "uint256",
        "numberOfBytes": "32"
      }
    }
  }
}